:020000040000FA
:10000000204F0020011C00005D4A0000311C000050
:10001000311C0000311C0000311C000000000000F9
:10002000000000000000000000000000151B0000A0
:10003000311C000000000000CD1A0000B54900008E
:10004000D91B0000D91B0000D91B0000D91B0000E0
:10005000D91B0000D91B0000D91B0000D91B0000D0
:10006000D91B0000D91B0000D91B0000D91B0000C0
:10007000D91B0000D91B0000D91B0000D91B0000B0
:10008000D91B0000D91B0000D91B0000D91B0000A0
:10009000D91B0000D91B0000D91B0000D91B000090
:1000A000D91B0000D91B0000D91B0000D91B000080
:1000B000D91B0000D91B0000D91B0000D91B000070
:1000C000D91B0000D91B0000D91B0000D91B000060
:1000D000D91B0000D91B0000D91B0000D91B000050
:1000E000D91B0000D91B0000D91B0000D91B000040
:1000F000D91B0000D91B0000D91B0000D91B000030
:1001000053B94AB9002908BF00281CBF4FF0FF317E
:100110004FF0FF3000F06CB9ADF1080C6DE904CE82
:1001200000F006F8DDF804E0DDE9022304B07047D2
:100130002DE9F047089E0D4604468E46002B40F000
:1001400082808A42174646D9B2FA82F24AB1C2F197
:10015000200105FA02F320FA01F1974041EA030E6B
:1001600094404FEA1748230CBEFBF8FCB9B208FBD9
:100170001CEE43EA0E430CFB01F098420AD9FB182F
:100180000CF1FF3580F01681984240F21381ACF1FA
:10019000020C3B441B1AA4B2B3FBF8F008FB10336B
:1001A00044EA034400FB01F1A14209D93C1900F1E2
:1001B000FF3380F00181A14240F2FE8002383C44CE
:1001C000641A40EA0C4000211EB1D4400023C6E965
:1001D0000043BDE8F08702B9FFDEB2FA82F2002ADE
:1001E0004FD1CB1B4FEA174E1FFA87F80121B3FB03
:1001F000FEFC250C0EFB1C3345EA034508FB0CF303
:10020000AB4207D97D190CF1FF3002D2AB4200F2AC
:10021000E7808446ED1AA3B2B5FBFEF00EFB105545
:1002200043EA054408FB00F8A04507D93C1900F152
:10023000FF3302D2A04500F2D7801846A4EB080491
:1002400040EA0C40C0E78B4208D9002E00F0AF8096
:100250000021C6E900050846BDE8F087B3FA83F13E
:1002600000294BD1AB4202D3824200F2B780841AFC
:1002700065EB030301209E46002EAAD0C6E9004E7E
:10028000A7E7C2F1200C01FA02F3974020FA0CF024
:100290004FEA174E21FA0CFC1843BCFBFEF1050C8B
:1002A0000EFB11CC1FFA87F845EA0C4501FB08F359
:1002B000AB4204FA02F409D97D1901F1FF3C80F048
:1002C0008B80AB4240F2888002393D44EB1A85B204
:1002D000B3FBFEF00EFB103345EA034500FB08F3C9
:1002E000AB4207D97D1900F1FF3C71D2AB426FD907
:1002F00002383D44EB1A40EA014178E7C1F1200C95
:100300008B4022FA0CF71F4320FA0CF405FA01F394
:100310004FEA174E25FA0CF51C43230CB5FBFEF9EA
:100320001FFA87F80EFB195543EA054509FB08FA41
:10033000AA4502FA01F200FA01F308D97D1909F180
:10034000FF3047D2AA4545D9A9F102093D44A5EBA2
:100350000A05A4B2B5FBFEF00EFB105544EA0544B5
:1003600000FB08F8A04507D93C1900F1FF352DD254
:10037000A0452BD902383C4440EA0940A4EB0804CC
:10038000A0FB02894C45C6464D4619D316D05EB136
:10039000B3EB0E0264EB050404FA0CFCCA404CEA11
:1003A0000202CC40C6E900240021BDE8F0873146B6
:1003B00030460EE7AC46EDE6184601E74345E6D287
:1003C000B8EB020E69EB07050138E0E72846D3E7F2
:1003D00060468FE78146BAE7614677E708464BE714
:1003E000ACF1020C3D4415E702383C4426E700BF5F
:1003F000704700BF30B585B04FF00000032363F3B2
:1004000002006FF3C5003E4B3E4A9B1AC3F3C9037B
:1004100063F38F103C4904F0A3F800F0B5F83B48B3
:1004200000F082F8A8B101A800F05AFB10B34FF019
:100430000000012363F302006FF3C500304B314A23
:100440009B1AC3F3C90363F38F10314904F088F892
:10045000FEE7012363F302006FF3C500284B294A2E
:100460009B1AC3F3C90363F38F10284A294904F088
:1004700077F8FEE703254FF0000065F302006FF305
:10048000C5001F4C1F4BE41AC4F3C90464F38F105A
:10049000039A214904F064F84FF0000065F302006C
:1004A0006FF3C50064F38F101C4904F059F84FF442
:1004B0004041002001F0CAFE60B14FF0000001236E
:1004C00063F302006FF3C50064F38F10144904F066
:1004D00047F8FEE701A803F03DFA4FF000000123C2
:1004E00063F302006FF3C500054B064A9B1AC3F382
:1004F000C90363F38F100B4904F032F8FEE700BF25
:10050000C06C0000B86C0000186D00002C6D00007D
:100510005C6D0000406D00007C6D0000A86D000067
:10052000C86D0000F86D000008B5054B1B6813B1DD
:10053000034B186808BD02F05DFF014B1860F7E738
:10054000C800002010B900200860704708B50246B6
:100550004FF00000012363F302006FF3C500074B67
:1005600007495B1AC3F3C90363F38F1000230549DE
:1005700003F0F6FF6FF0150008BD00BFC06C00006F
:10058000B86C0000186E000008B54FF4C051024866
:1005900002F0C0F908BD00BFCC00002002680E4B7D
:1005A0009A420DD1C2680389D84382420CD810B454
:1005B000D418012010B18B68A34203D910BC704736
:1005C000002070470020F9E7002010B18B68A3429B
:1005D00000D97047002070473DB8F39600B587B04A
:1005E000134600200490039002904FF48072019211
:1005F000054A00920A46014600F0B6FE10B907B05F
:100600005DF804FB0320FAE72C2500202DE9F041DA
:1006100082B006460C461546002003F0BEF901A93B
:10062000C0B201F001F928B14FF0FF35284602B001
:10063000BDE8F0812C2000FB04672146304603F022
:1006400028FA88B33B6913F0100F32D1DDF804802B
:1006500041463846FFF7A2FFA8B9ECB94FF00000B9
:10066000012363F302006FF3C500134B134A9B1A77
:10067000C3F3C90363F38F10A4B9114A114903F0FE
:100680006FFF012511E02B46424639463046FFF701
:10069000A5FF054648B1E0E701988268002104F013
:1006A00025F8DBE7084AE9E70125019803F0CEFFCA
:1006B000BCE70125F9E700BFC06C0000B86C000082
:1006C000546E00005C6E0000486E000030B583B0D0
:1006D00005460C46002300930193084603F078FA80
:1006E00030B32A681F4B9A4216D0EA6A1D4B9A42D1
:1006F00018D0019B009A934200D90093009BA360FD
:10070000009A2146284600F093FC174B1A68002AED
:1007100016DC002003B030BD6A460021284603F0F5
:1007200061F9E2E701AA0121284603F05BF9E0E75D
:1007300004F10801002003F07BFCA3680093DFE7CD
:100740004FF00000022363F302006FF3C500074B74
:1007500007495B1AC3F3C90363F38F10054903F01C
:10076000FFFED6E73DB8F3962C260020C06C0000B3
:10077000B86C0000806E000038B504460D46FFF7E7
:10078000A5FF0246EB7984F85830033BDBB2012B1E
:100790000CD9EB79022B13D0042B11D0032B0FD0E3
:1007A00094F85830FF2B15D0104638BD002003F0C8
:1007B0001EFB02460028ECD0FF2384F85830E8E7FF
:1007C000002003F001FB02460028E9D0FF2384F853
:1007D0005830E5E74FF00000012363F302006FF3A8
:1007E000C500054B054A9B1AC3F3C90363F38F1079
:1007F000034903F0B5FEFEE7C06C0000B86C0000D2
:10080000AC6E000038B504460D4603F08AF968B9AD
:1008100000221146204603F09AF9E8B9204600F07C
:10082000E1FA78BB012384F8583014E04FF000005F
:10083000022363F302006FF3C500474B474A9B1A3C
:10084000C3F3C90363F38F108022454903F088FE88
:10085000012384F8583038BD4FF00000022363F3C1
:1008600002006FF3C5003C4B3C4A9B1AC3F3C9031B
:1008700063F38F1000223B4903F072FE012384F8DA
:100880005830E8E7284603F099F92946204603F056
:1008900062FAE8B9284603F09BF980F001012A4684
:1008A000C9B2204603F053F940BB284603F090F943
:1008B000002839D0EB79012B43D02A46012120466C
:1008C000FFF7A4FE002843D0052384F85830C2E780
:1008D0004FF00000022363F302006FF3C5001E4BCC
:1008E0001E4A9B1AC3F3C90363F38F1000221E49EB
:1008F00003F036FE012384F85830ACE74FF00000D7
:10090000022363F302006FF3C500134B134A9B1AD3
:10091000C3F3C90363F38F100022124903F020FED2
:10092000012384F8583096E729462046FFF724FF34
:100930002A460021204603F00AF9012384F85830A2
:1009400089E72946204603F01DF984F8580082E71C
:10095000EB7984F858307EE7C06C0000B86C00007A
:10096000B46E0000F46E00001C6F00002DE9F84F1B
:10097000884691461F46DDF828A00B9E00250FE013
:1009800023460F4AE919404603F061FEA0B9234609
:100990000B4A05EB0A01484603F078FE70B925447E
:1009A000B54206D2741BB4F5806FE9D94FF4806468
:1009B000E6E70020BDE8F88F0120FBE70120F9E71A
:1009C0002C19002070B584B004460D466022002129
:1009D00004F0ACF83D4B63623D4B236500260CE010
:1009E0003146002002F0D9FF2C2101FB06F1203115
:1009F0002144C0B200F018FF0136012EF0D969463B
:100A00002046FFF7FFFE94F858308DF80730042B8E
:100A100025D8022B2ED2012B31D194F85830FF2B40
:100A200031D0012B06D06A460021204603F08FF812
:100A3000064690B9002211462046FFF7E7FD06461C
:100A400098BB10220021684604F070F8236A5B7896
:100A50002B71236A5B68AB602C60002530E0052BAE
:100A60000DD1002003F0C3F90028D6D0FF2384F86D
:100A70005830D2E76946204603F0BBF8CDE7FF23A4
:100A800084F85830C9E74FF00000012363F30200F7
:100A90006FF3C5000F4B104A9B1AC3F3C90363F3EE
:100AA0008F100E4903F05CFDFEE70326D5E7C5F184
:100AB00001032C2202FB0343186A03F0C7FD013532
:100AC000012DF4D9304604B070BD00BF2C1D0020AC
:100AD0002C210020C06C0000B86C0000AC6E00003F
:100AE00008B501460148FFF76DFF08BDCC1800208E
:100AF0002DE9F04383B00F4615461C46DDF82880EB
:100B0000536A53F830601A68B61A013853F8303017
:100B1000A3EB02092368012B1BD03A46314640461D
:100B200003F0BBF8019700964B46424641462846E3
:100B3000FFF71CFF2146284603F07CF823680133A9
:100B4000236018B10C4A13680133136003B0BDE889
:100B5000F083E368022B04D10B99284603F0A1F837
:100B6000DBE74146284603F09CF8224641462846EA
:100B700003F0CFF8F0E700BF2C2600202DE9F0436A
:100B800083B00E4615461C46526A52F83010136860
:100B9000A1EB0308013852F83070FF1A2A6D52F8A1
:100BA00030101368A1EB03092379012B05D02379B9
:100BB000022B1CD003B0BDE8F083324639460A98B8
:100BC00003F06BF8019600974B460A9A0B9928465A
:100BD000FFF7CCFE2146284603F02CF802232371B0
:100BE0000028E4D0114A136801331360DFE732466E
:100BF00049460B9803F051F80196CDF80090434612
:100C00000B9A0A992846FFF7B1FE2146284603F0C1
:100C100011F8236801332360012323710028C9D010
:100C2000024A136801331360C4E700BF2C2600207A
:100C300070B582B015461E46002B36D0436A5C68FC
:100C40007379012B11D0022B17D00024002002F061
:100C5000A4FE01A9C0B200F0E7FD68B30124019829
:100C600003F0F4FC204602B070BD01BB32681C4B9F
:100C70001B689A42EAD80024E8E73368012B07D9B9
:100C8000174A1268934203D899B900240121DDE77D
:100C9000012B01D00024D9E701B100240129D5D1CD
:100CA0003379022BD2D10021D0E70024CEE70024F3
:100CB000CCE700242146C9E720232A462146019893
:100CC00003F0C5FC044640B9002EC8D02A68054B85
:100CD0009A42C4D04FF0FF34C1E70124BFE700BF00
:100CE000000000203DB8F3962DE9F04F85B0064690
:100CF0000D4601920146002003F00BF9041E62DB51
:100D0000D5F85CA0304603F012F981464FF0000B95
:100D100001274FF0FF3805E0874201D00BF1010BAE
:100D20002C460746002C13DD651E5FFA8AF101236D
:100D30000DF10F0205FB0191304602F03AFE00284A
:100D400043DB0128E8D0B8F1FF3FE9D1A046E7E74F
:100D5000BBF1010F0EDCB8F1FF3F3AD0B8F17F0FC5
:100D60001ADC012301994B7108EB03020A600B7135
:100D700000202BE04FF00000012363F302006FF32B
:100D8000C500154B154A9B1AC3F3C90363F38F10B3
:100D9000134903F0E5FBDEE70223019A5371A8F142
:100DA000800808EBD8735B1001331360B8F1000FB3
:100DB00008F00108B8BFC8F1000808F1010882F87E
:100DC0000480002002E0072000E0012005B0BDE81B
:100DD000F08F0020FAE700BFC06C0000B86C000084
:100DE000446F000010B5846A436D9C4210D1802C82
:100DF00021D80023A34244D2426A02EBC3025168C5
:100E0000026D02EBC30252688A4227D10133F1E737
:100E10004FF00000022363F302006FF3C5001A4B8A
:100E20001A4A9B1AC3F3C90363F38F10184903F0DE
:100E300097FB002010BD4FF00000022363F3020077
:100E40006FF3C500104B114A9B1AC3F3C90363F338
:100E50008F10104903F084FB0020EBE74FF00000F7
:100E6000022363F302006FF3C500074B074A9B1A86
:100E7000C3F3C90363F38F10074903F071FB00202C
:100E8000D8E70120D6E700BFC06C0000B86C0000B6
:100E9000646F00009C6F0000C86F000010B586B042
:100EA00004A9022003F0AFF84FF00000032363F31E
:100EB00002006FF3C500264B264A9B1AC3F3C903F1
:100EC00063F38F109DF81030012B2DD0032B29D008
:100ED000214B9DF811209DF812109DF813400294AB
:100EE000019100921D4A1E4903F03AFB9DF8103013
:100EF000012B03D19DF81230032B17D04FF00000C7
:100F0000032363F302006FF3C500114B114A9B1AD0
:100F1000C3F3C90363F38F10124903F021FB0020D0
:100F200006B010BD104BD4E7104BD2E74FF00000D5
:100F300063F302006FF3C500054B064A9B1AC3F327
:100F4000C90363F38F100A4903F00AFB0220E7E7A5
:100F5000C06C0000B86C0000F06F0000047000006E
:100F6000147000006C700000FC6F0000F46F000053
:100F700050700000F0B587B00C46496801F0FF21C1
:100F8000234DA94204D1064617462268012A01D002
:100F900007B0F0BD04A9184603F035F84FF0000083
:100FA000032363F302006FF3C5001A4B1A4A9B1A1E
:100FB000C3F3C90363F38F109DF81030012B24D0C5
:100FC000032B20D0154B9DF811209DF812109DF891
:100FD0001350029501910092114A124903F0C0FA90
:100FE0009DF81030032BD3D13946304602F059FE1C
:100FF000384603F03FF8A168384603F054F8384605
:1010000000F0E2F8C4E7084BDDE7084BDBE700BF80
:1010100000010004C06C0000B86C0000F06F00001C
:101020008070000014700000FC6F0000F46F00007E
:10103000F0B585B007460D4600243E4B1C60436A60
:101040005E6834443B490B6801330B609442F8D32B
:10105000284602F0BDFD70B1F86D02F055FFBA6A86
:10106000013A00233344984201D9013AFAE7314B5F
:101070001B68934214D203A9022000F0D5FB02A9F9
:10108000052000F0D1FB0523029A29463846FFF7D8
:1010900071FF6B79012B17D002236B71012438E0AB
:1010A0004FF00000022363F302006FF3C500224BF0
:1010B000224A9B1AC3F3C90363F38F10204903F03C
:1010C0004FFA0123EB7132E01A4B1C680AE0029BD5
:1010D0000193039B00932B463A4631462046FFF787
:1010E00007FD013C3CB12A68124B1B689B1A013377
:1010F0009C42F6D8EBE701232B60CDE7029B0193DE
:10110000039B00932B463A4631462046FFF736FDB7
:101110000134084B1B68A34203D32B68A342F7D8C2
:10112000ECE7039803F092FA029803F08FFA05B007
:10113000F0BD00BF00000020C06C0000B86C0000D3
:101140009070000008B51022034903F0B4FC08B108
:10115000022008BD0120FCE70871000070B586B0D0
:101160000D460223ADF80430002407E0286803F0A0
:101170006DFA23E0286803F069FA0134012C1BD8CA
:10118000294606AB234413F8140C00F04DFB064629
:10119000A0B928688168102302AA103903F057FA11
:1011A00006460028E2D11022064902A803F083FC7B
:1011B00006460028DED101E04FF0FF36304606B08B
:1011C00070BD00BF0871000008B581681023044A93
:1011D000103903F05BFA00B908BD0120FCE700BF3D
:1011E0000871000030B585B002A9022002F00BFFA3
:1011F00000286ED16946052002F005FF00286AD15B
:10120000002407E02B79042B29D09DF80A20934273
:1012100025D00134022C48D804EB44032F4A02EBBA
:1012200043059DF8081012F8130002F05AFE00283A
:10123000EFD09DF80010687802F053FE0028E8D047
:10124000AB78042B03D09DF80B209342E1D1EB78CF
:10125000042BD7D09DF803209342DAD1D2E74FF088
:101260000000032363F302006FF3C5001C4B1D4A0B
:101270009B1AC3F3C90363F38F106B79022B07D05A
:10128000032B10D0042B01D0174A02E0174A00E0CC
:10129000174A184903F064F96879831EDBB2022B00
:1012A00015D9FF2013E0144AF3E74FF000000323A1
:1012B00063F302006FF3C500094B0A4A9B1AC3F39C
:1012C000C90363F38F100D4903F04AF9012005B0FB
:1012D00030BDFF20FBE7FF20F9E700BF18710000D9
:1012E000C06C0000B86C0000CC700000E070000022
:1012F000BC700000E8700000C4700000F8700000CE
:1013000070B5A4B0202928D806460D460024144BF9
:101310001B68A3421CDD09A805F0DAF9002109A821
:1013200001F026FC0F4B03EBC4025268126853F81D
:10133000341009A805F0D2F901A909A805F011FA9D
:101340002A46314601A803F0B6FB18B10134DEE7A6
:101350004FF0FF34204624B070BD4FF0FF34F9E762
:101360003C6E0000406E00002DE9F041D6B01446FE
:101370001D465F9E04965E9E039606AE02965D9E97
:1013800001965C9E009602F09EFE0646002840F004
:101390008280609B23B1202206A9184603F0A2FB9D
:1013A000002300934FF6FF732A4621464EA802F011
:1013B0004DFF064600286ED1074680464FF0FF34A9
:1013C0001DE04FF0FF341AE04FF0FF3417E04FF00C
:1013D000FF34012713E0BDF85231202B5FD10EAA54
:1013E0005599284603F033F900285BD120220EA935
:1013F00006A803F060FB002856D14FF0010854AB5B
:101400000DF5A97255A94EA802F085FF002840DB12
:1014100038DCBDF85021102ADDD0012A21D0202A45
:10142000EDD1002CCDDB294B1B68A342CCDDBDF8F0
:101430005231B3F5807F3FD10EAA5599284603F06B
:1014400006F900283BD1E4B20094BDF852310EAA4F
:10145000202106A800F0AEF80028B8D04FF0FF34E5
:10146000CDE7BDF85231202B21D80EAA5599284638
:1014700003F0EDF8F0B99DF852110EA8FFF740FF08
:101480000446BCE7B8F1000F1CD027B94FF0FF3677
:1014900001E04FF0FF36304656B0BDE8F0814FF026
:1014A000FF36F8E70646F6E74FF0FF36F3E74FF072
:1014B000FF36F0E70646EEE74FF0FF36EBE74FF07A
:1014C000FF36E8E74FF0FF36E5E700BF3C6E00006F
:1014D00070B5ADF51C7D0E4619464368B3F5807FA7
:1014E00051D1202A52D141AA01F000FB0546002823
:1014F0004FD19DF80332BC2B4ED10DF2E31109A858
:1015000002F072FE2B46DE2B07DC41AAD25C09A852
:10151000C45C6240C2540133F5E79DF8243003F007
:101520007F038DF82430BD2D04DC09AB5B5DB3BBBC
:101530000135F8E79DF8E230012B35D181A805F09F
:10154000C7F8002181A801F013FB0822184981A8DF
:1015500005F0C4F82022314681A805F0BFF820220A
:101560000DF1E30181A805F0B9F801A981A805F002
:10157000F8F820220DF2E31101A803F09CFA80B1E3
:101580004FF0FF300DE04FF0FF300AE04FF0FF303A
:1015900007E04FF0FF3004E04FF0FF3001E04FF084
:1015A000FF300DF51C7D70BD4FF0FF30F9E700BF37
:1015B0002C7100002DE9F043ADB006460F46904671
:1015C0001D469DF8D0900022114601A805F03AF87A
:1015D000114C54F83930009304EBC9046268126866
:1015E0001A44694601A802F0ADFD044610B9029BF9
:1015F000AB4206D001A805F033F820462DB0BDE877
:10160000F08343463A46314601A8FFF761FF04469E
:1016100001A805F025F8F0E7406E0000BFF36F8FDA
:1016200072B6002308E003F120010B4A4FF0FF30AF
:1016300042F821000133DBB2072BF4D9002308E084
:1016400003F16001044A4FF0FF3042F821000133FA
:10165000DBB2072BF4D9704700E100E02DE9F0433D
:1016600083B080460F461646124B1B6898470546C6
:10167000002400E00134104B104A9B1AB4EB231FE6
:1016800014DA0E4800EB041043685B79002BF1D0AC
:1016900023010A4AD358D3F80490B9F1000FE9D0D6
:1016A00000963B462A464146C847E3E703B0BDE8FB
:1016B000F08300BF04000020E86C0000E86C00002C
:1016C00008B5044B044A1A604FF4004000F07EF85D
:1016D00008BD00BF040000205945000008B50B4BB1
:1016E000C31A1B11013342681371436819604368C0
:1016F00001225A71064B1B781BB1054B01221A704F
:1017000008BD044802F07CF8F7E700BFE86C000071
:10171000182700209800002038B5154BBFF35B8FC9
:1017200053E8002F511C43E800100028F8D1BFF304
:101730005B8FDAB9002405E0042200212846FFF778
:10174000CDFF01340B4B0C4A9B1AB4EB231F0DDA6F
:10175000094D05EB04152B7B002BF2D02301064A23
:10176000D3585B69002BE7D09847E5E738BD00BF49
:1017700030260020E86C0000E86C0000104B1B785D
:1017800003B1704710B5FFF7C7FF002400E0013434
:101790000C4B0D4A9B1AB4EB231F0CDA0A4800EBE2
:1017A000041043685B79002BF1D02301064AD3581B
:1017B0001B699847EBE7024B01221A7010BD00BF6E
:1017C00019270020E86C0000E86C0000074B01229C
:1017D0001A60074B984205D94008044A13685B0019
:1017E0001360F6E7034B1860704700BF38260020EF
:1017F00040420F003426002010B404460023084A5B
:1018000012689A4209DD1A010649096801EB0310C2
:101810008A5CA24202D00133F1E7002010BC70477D
:10182000A872000008000020084B1B683BB110B5EF
:101830000C46FFF7E1FF28B12060002010BD6FF0DB
:101840000C0070476FF00100F8E700BF08000020AF
:1018500000B58BB003AB0093024B02F0D0FE0BB08F
:101860005DF804FBC345000008B501214FF480700A
:1018700002F071FF28B100210A4802F092FF437A7A
:1018800033B102214FF4827002F065FF28B908BD20
:101890000021044803F05AF8F3E70121014803F05E
:1018A00055F8F4E74800002020F07F40014BC3F8D2
:1018B0004005704700100140014BD3F840057047C8
:1018C0000010014082B0044B00221A601B68019393
:1018D000019B02B0704700BF40110140024B4FF422
:1018E0008032C3F84423704700100140024B4FF48C
:1018F0008032C3F80823704700100140024B4FF4B8
:101900008032C3F80423704700100140014BD3F824
:10191000040570470010014038B5FFF7D3FFFFF70B
:10192000CBFF054D2C68214603F046F804442C609B
:1019300001F0AAFF38BD00BF5426002038B5FFF7DC
:10194000E5FF0446FFF7B8FF0546FFF7BBFF20465B
:10195000FFF7AAFFFFF7C2FF2146284603F02CF845
:10196000012805D0054B4FF40032C3F8802138BD63
:101970000F2005F064F8FFF7A5FFF3E700E100E0B2
:1019800038B5134801F036FDF0B1826812680121C4
:101990009047104D0024C5F80845FFF793FF0E4B04
:1019A0004FF40032C3F88021FFF7A8FF224601213F
:1019B000112000F0CFF8112000F0BCF80123074AF5
:1019C00013602B60204638BD4FF0FF30FBE700BFAF
:1019D000AC7200000010014000E100E0081001407E
:1019E00038B5B0F1FF3F1ED0441E114B9C4201DCC4
:1019F000002C1BDD0E4B9C4200DD0E4CFFF786FFDA
:101A00000D4B1D68294602F0D7FFB0F5000F00D33B
:101A1000002420440130B0F5000F00D305482844CD
:101A200003F000F838BD00F50000DDE70024E5E72D
:101A3000FEFF7F00FFFF7F005426002010B54FF00F
:101A40002003EFF3118483F31188BFF36F8FFFF747
:101A50005DFF044B196802F0AFFF84F31188BFF3F8
:101A60006F8F10BD5426002038B54FF02003EFF3E0
:101A7000118583F31188BFF36F8FFFF747FF054B85
:101A80001C68214602F098FF204485F31188BFF3BB
:101A90006F8F38BD54260020094A9368D8660949DB
:101AA0000968196708494B6843F080534B6000236D
:101AB00083F31188BFF36F8F9368186F704700BF6F
:101AC000EC260020AC74000000ED00E00F498A68AD
:101AD0004FF030001044EFF3098C80E8F01F202015
:101AE00080F31188BFF36F8F094F4FF00066CA690A
:101AF0008A603E60D06E0023D36680F3118802F1C5
:101B0000300090E8F01F8CF309887047EC26002025
:101B100004ED00E01EF0040F0CBFEFF30880EFF3BC
:101B20000980816911F8021C0229FFD001B502F079
:101B30008FFF01BD43B2002B08DB00F01F005B09E3
:101B4000012202FA00F0024A42F82300704700BF67
:101B500000E100E0013143B2002B08DB4901C9B2CA
:101B600003F1604303F5614383F80013704700F00D
:101B70000F004901C9B2014B1954704714ED00E040
:101B8000014910220A60704710ED00E030BFFFF7F6
:101B9000FDBF00BF08B50E4B0E4A22F07F029A60CF
:101BA000BFF34F8FBFF36F8FD3F8882022F47002FA
:101BB000C3F88820EFF3148323F0040383F314881D
:101BC00001F03EFC01F048FC00F022F901F074FC49
:101BD00000ED00E00000000001B5EFF30580A0F18A
:101BE00010004FEAC0000449014409C99847BDE804
:101BF0000140024908470000386B00000D1E00003C
:101C000002F0B1FF202080F3118808484FF40061F2
:101C1000401880F30988EFF314800221084380F311
:101C20001488BFF36F8FFFF7B5FF0000204F00202F
:101C3000EFF30880EFF30981724601B500F094F8E4
:101C400001BD00BF10B514460F4B9A6A9A6A9B6A91
:101C500013F0020F0BD00C4B5A6B9B6A13F0800FE2
:101C600005D021B1084A936A23F080039362064BA2
:101C70009A6A9A6A9A6A9A6A42F0FF029A6202F033
:101C8000F3FE2070002010BD00ED00E010B51446FA
:101C9000124B9A6A9A6A9B6A13F4007F0BD00F4B1F
:101CA0009A6B9B6A13F4004F05D021B10B4A936ADB
:101CB00023F400439362094B9A6A9B6A13F4807F72
:101CC00001D1064B9B6A054A936A43F47F439362B2
:101CD00002F0CAFE2070002010BD00BF00ED00E041
:101CE000074B9A6A9A6A9A6A9A6A9A6A9A6A9A6A86
:101CF0006FEA02426FEA12429A620020704700BF08
:101D000000ED00E000230B70144BDA6A12F00202BF
:101D100021D110B50446D86A10F0804010D0283385
:101D20001B7843B90E4B1B785BB90E4B1B889BB2DB
:101D30006BB9104604E00A4601212046FFF782FFF6
:101D400010BD0A4601212046FFF7A0FFF8E7204614
:101D5000FFF7C6FFF4E70020704700BF00ED00E08A
:101D600029ED00E02AED00E070B58AB00C46224B68
:101D70005968C1F30801002383F31188BFF36F8F03
:101D800002F07F43B3F17F4F15D102F00C03082B13
:101D900014D012F0080F0BD000260DF127022046B8
:101DA00002F064FE05469DF8273053B10AB070BDBD
:101DB00004460126F1E700263446EEE700263446C5
:101DC000EBE72022214601A802F08CFE4EB1089BD1
:101DD000C3F308025AB96FEA53236FEA4323089307
:101DE00005E0089B23F4FF7323F00103089301A986
:101DF000284602F029FED9E700ED00E0024A5369C7
:101E000043F010035361704700ED00E0704700BFDE
:101E1000002206E002F00F01094B0B442021197645
:101E200001322F2A0ADC53B2002BF3DB03F16043AB
:101E300003F56143202183F80013F1E7704700BFE9
:101E4000FCEC00E038B504464FF02003EFF31185B9
:101E500083F31188BFF36F8F01F030FC0A4B9B684E
:101E6000A34203D0284604F07EFD38BD074B5B68D3
:101E7000C3F308032BB1054A536843F08053536002
:101E8000F0E72846FFF708FEEC26002000ED00E012
:101E9000064A90600B6823F01F03034343F01003CE
:101EA000D3608B6843F001031361704790ED00E04D
:101EB000034B05225A60BFF34F8FBFF36F8F7047FC
:101EC00090ED00E0BFF35F8F014B00225A60704736
:101ED00090ED00E038B50E4B1D68082D15D8FFF7C2
:101EE000F1FF0024A5420AD9094B596804EB4402CA
:101EF000930019442046FFF7CBFF0134F2E7054B6E
:101F00001D70FFF7D5FF002038BD4FF0FF30FBE715
:101F1000187300001A2700204FF02003EFF31182FE
:101F200083F31188BFF36F8F01230649C1F8403551
:101F30004FF08041C1F8783582F31188BFF36F8F7D
:101F40000020704700E0014030B108B58001034B2C
:101F500043F00103984708BD704700BF106D0000B3
:101F6000034BD3F8003413F0010FF9D0704700BFD2
:101F700000E00140024B0B6001231360704700BF7B
:101F80005826002010B502F0E9FF034C206002F053
:101F9000E1FF6060002010BD5826002043681A68E9
:101FA000B1F5164F6FD03AD8B1F5165F6ED00AD999
:101FB000B1F5E14F75D024D947F6122399422BD1C0
:101FC0004FF4000313E0B1F5966F61D007D9B1F576
:101FD000166F63D0B1F5965F10D13C4B07E0B1F5B9
:101FE000967F58D0B1F5167F05D14FF41C33C2F857
:101FF0002435002070476FF0150070476FF0150012
:102000007047B1F5615F4ED0B1F5964F01D1304BBD
:10201000EDE76FF0150070476FF015007047B1F5F0
:10202000613F42D009D9B1F5612F46D01FD9294B64
:10203000994248D14FF08053D9E7B1F5963F37D058
:1020400005D9B1F5E13F0FD14FF0EB73CFE74DF676
:10205000C02399422ED0B1F5614F02D14FF46B03EA
:10206000C5E76FF0150070476FF0150070471A4B09
:10207000994225D0B1F5E12F02D14FF0E863B6E7E0
:102080006FF0150070474FF41D03B0E7134BAEE738
:102090004FF49E23ABE74FF4A033A8E74FF41D2382
:1020A000A5E70F4BA3E70F4BA1E74FF06C739EE73B
:1020B0000D4B9CE74FF4650399E74FF0706396E78B
:1020C0004FF0806393E76FF01500704700B0130086
:1020D00000A04E0040420F0090D0030000502700A7
:1020E00000C0750000F03A0000903A0170B582B06F
:1020F0000C4643681D68C6680A681F2A03D902F0A7
:102100001F023F4901E04FF0A04101239340C1F875
:10211000083523681F2B03D903F01F03384A01E059
:102120004FF0A04203F5E073032142F823106368E7
:10213000B3F1FF3F09D01F2B56D903F01F03304ADC
:1021400003F5E073002142F8231022686368C5F8A4
:102150000C25C5F81435A368B3F1FF3F29D0E36817
:10216000B3F1FF3F25D01F2B41D903F01F032449B2
:10217000012202FA03F3C1F80835E3681F2B39D9AD
:1021800003F01F031E4903F5E073032241F82320E7
:10219000A3681F2B31D903F01F03194903F5E0731E
:1021A000002241F82320E268A368C5F80825C5F895
:1021B0001035C16802F0D8FDA0B90823C5F8003574
:1021C0006368B3F1FF3F0DD00023C5F81031D5F897
:1021D00010310193019B0C36C5F834650123C5F815
:1021E00038352B6002B070BD4FF0A042A8E74FF029
:1021F000A041BDE74FF0A041C5E74FF0A041CDE7BA
:102200000003005030B585B00546064B6C460FCB39
:1022100084E80F00002221462846FFF767FF05B03B
:1022200030BD00BFF06C000030B585B005466C468F
:10223000054B0FCB84E80F00002221462846FFF70C
:1022400055FF05B030BD00BF006D00001F4B1A6880
:10225000072A2CD830B44FF080531C69B0FBF4F33C
:1022600004FB130333BB4FF080531C69B1FBF4F341
:1022700004FB13130BBB4FF080542369646903FB09
:1022800004F38B421CD3F1B1541C104B1C60104B57
:1022900002F18004250103EB04145851616003EB43
:1022A00002130222C3F80828002030BC70476FF0E8
:1022B0001B0070476FF01500F7E76FF01500F4E7AB
:1022C0006FF01500F1E76FF01500EEE760260020D3
:1022D00000E001400D4B1A68B2F1FF3F05D00C4BF6
:1022E0001B68082A08D0002070470A4B1A78083368
:1022F0001B68C3F30313F4E7032B03D8DFE803F0F1
:1023000004040404002070470120704730010010CD
:1023100034010010E00F00F00D4B1A68B2F1FF3FDE
:1023200005D00C4B1B68082A08D0002070470A4BC8
:102330001A7808331B68C3F30313F4E7032B03D89D
:10234000DFE803F004040404002070470120704714
:102350003001001034010010E00F00F0064B1B6844
:10236000064A1268082B01D0002070470AB10020ED
:1023700070470120704700BF300100103401001089
:10238000064B1B68064A1268082B01D000207047D4
:102390000AB1002070470120704700BF30010010D3
:1023A00034010010064B1B68064A1268082B01D046
:1023B000002070470AB1002070470120704700BF1D
:1023C0003001001034010010064B1B68064A1268E9
:1023D000082B01D0002070470AB10020704701206F
:1023E000704700BF30010010340100100D4B1A6817
:1023F000B2F1FF3F05D00C4B1B68082A08D0002023
:1024000070470A4B1A7808331B68C3F30313F4E7C9
:10241000032B03D8DFE803F0040404040020704712
:10242000012070473001001034010010E00F00F06F
:10243000014B024A1A6070472C0000200090D00324
:1024400008B5FFF747FF40B14FF080430022C3F8C3
:102450000C21C3F81021C3F83825FFF75DFF0028D1
:1024600046D04FF08052D2F804143B4BC3F82015ED
:10247000D2F80814C3F82415D2F80C14C3F82815A0
:10248000D2F81014C3F82C15D2F81414C3F8301570
:10249000D2F81814C3F83415D2F81C14C3F8401538
:1024A000D2F82014C3F84415D2F82414C3F8481500
:1024B000D2F82814C3F84C15D2F82C14C3F85015D0
:1024C000D2F83014C3F85415D2F83414C3F8601598
:1024D000D2F83814C3F86415D2F83C14C3F8681560
:1024E000D2F84014C3F86C15D2F84424C3F8702510
:1024F000FFF734FF10B1194B194A1A60FFF740FF7C
:1025000018B1184BFB22C3F81825FFF74BFF48B151
:1025100015490B6823F00F03144A126802F00F02EA
:1025200013430B60FFF750FF18B1114B4FF40072CB
:102530001A60FFF75BFF60B14FF08043D3F80034BF
:1025400013F0010F05D04FF080436FF00102C3F884
:102550000024FFF76DFF08BD00C000408C5600400E
:102560004881030000F00040E40E004058020010D3
:1025700040960240024B0022C3F80425704700BF7A
:1025800000E00140024B0122C3F80425704700BF60
:1025900000E00140024B0222C3F80425704700BF4F
:1025A00000E00140044BD3F8003413F0010FF9D0E0
:1025B0000160BFF35F8F704700E0014010B5044633
:1025C00002F0ACFC08B9084810BDFFF7E3FF074B69
:1025D000C3F80845054BD3F8003413F0010FF9D0C8
:1025E000FFF7C8FF0248EFE70A00AD0B00E001402B
:1025F0000000AD0B0268124B9A4215D1C269A3F1DB
:102600001023A3F1EF139A4210D18368012B0FD846
:10261000C36813B1026993420CD0436963B1826904
:1026200093420BD000207047012070470120704773
:10263000012070470120704700207047012070473B
:1026400055AA00FF70B5114B9D68B5B12846FFF73C
:10265000D1FF064698B9EB6813B10126304670BD2C
:102660002C69002CFAD02046FFF7C4FF48B9E36874
:10267000AB4208D125462469F3E70126EEE701269F
:10268000ECE70126EAE70126E8E700BF6426002020
:10269000002800F0928038B50546484B1B68002B97
:1026A0006CD0464A9268002A68D0834204D8434AD4
:1026B00052681344834203D8414B1B68012098475A
:1026C000A5F120042046FFF795FF18B13C4B1B688D
:1026D0000120984755F8183C012B03D0384B1B6854
:1026E00001209847002345F8183C55F8143CCBB11D
:1026F0009A68002A43D155F81C2C59680A442032A4
:102700005A6055F8143C55F8102C1A6155F8145CB1
:102710002B6903B1DD6020220021204602F006FA79
:1027200023462C4625691DB3AA680ABB6B686268FC
:102730001344203363602B69236163690BB323B3B4
:10274000A2699A61A3690BB162695A616B6963619D
:10275000AA69A261EBB19C61A36903B15C612369C1
:1027600003B1DC6020220021284602F0DFF92B466D
:1027700093B1124B1B6913F0020F15D138BD002322
:10278000D0E7A269002ADAD1E0E7A2690B4BDA6050
:10279000D8E70A4BDC60DFE7084BDB68A36103B1D5
:1027A0005C61064BDC60E4E7FFF74CFF0028E5D0F6
:1027B000034B1B6801209847E0E770476426002020
:1027C0003400002070B54F4BDC681D68002D5AD0D6
:1027D0009D68002D57D001FB00F6002800F088808E
:1027E000002900F08780B6FBF0F0884240F084803A
:1027F00016F1040F00F2828016F0030F08D026F0C5
:102800000305043534B16368AB4203D2A469F9E728
:102810003546F7E7002C73D0A3681BB13A4B1B6811
:10282000012098476268521B232A2ED905F1200106
:102830006318203A5A6000229A60DC6022691A61AB
:10284000324860503249D96102B1D36062695A613D
:10285000A1699961002A3FD093619A6902B15361DD
:102860000122A2606560236100236361A361254B9F
:102870001B6913F0010F32D104F12005324600210B
:10288000284602F053F9284670BD0123A36063690E
:10289000ABB1A2699A61A3690BB162695A61002365
:1028A0006361A361174B1B6913F0010F0BD104F196
:1028B000200532460021284602F038F9E3E7A269F4
:1028C000104BDA60E7E7FFF7BDFE0028EFD00E4BB4
:1028D0001B6801209847EAE70A4AD360BDE7FFF783
:1028E000B1FE0028C8D0084B1B6801209847C3E7F9
:1028F0000025C8E70025C6E70025C4E70025C2E794
:102900002546C0E7642600203400002055AA00FFB9
:10291000669911EE38B505460C461422002113487D
:1029200002F004F91249134800F038F8232C1CD99E
:1029300015F0030304D01C44043CC3F104031D44FC
:1029400022460021284602F0F1F8084B1D605C6029
:102950009D60203C6C609A68074911609A68A1F1FB
:102960001021A1F1EF11D161DA6038BD6426002099
:1029700091260000C527000055AA00FF08B5024BAC
:102980001B68984708BD00BF3000002008B5024B07
:102990001B68984708BD00BF38000020024B186034
:1029A000024B1960002070473000002038000020E2
:1029B00031B108B50A46034B1B680021984708BD92
:1029C000704700BF3C000020F8B504460D4647683C
:1029D00000F10806304602F048FE874251D1636894
:1029E000B3F5807F4FD80021304603F03EF8002831
:1029F0002ADD0021304602F010FE28B3CDB104F1EB
:102A00002C060021304603F030F800281EDD00219E
:102A1000304602F002FEC8B104F13806002130460B
:102A200003F023F8002811DD0021304602F0F5FD07
:102A300060B1002104F1140003F017F8002824DD30
:102A400035B9ADB92846F8BD124DFBE7114DF9E790
:102A5000002104F1440003F008F8002806DD0021FD
:102A600004F1500003F001F80028EADC094DE9E721
:102A7000002104F15C0002F0F8FF002807DD0025CA
:102A8000E0E7044DDEE7034DDCE7024DDAE7014DF8
:102A9000D8E700BF80BFFFFF70B504460022114693
:102AA000FFF792FFE0B9064604F10805284602F058
:102AB000C5FD7F2816D914340021204602F0ADFD53
:102AC00060B1204602F0BAFD012807D92946204608
:102AD00002F083FF002801DA304670BD024EFBE7AA
:102AE000014EF9E7004EF7E700BEFFFFF0B587B0F3
:102AF00004460D46164600221146FFF765FF98BBB7
:102B000003A802F0F9FC6268294603A802F0B3FDAD
:102B1000054630B103A802F0F5FC15BB284607B006
:102B2000F0BD04F10805294603A802F056FF00286D
:102B300002DB6FF00305EDE7676804F168030093BB
:102B40002B4604F1140203A9084603F0F1FA0546E6
:102B50000028DFD13A46314603A802F0BBFD054606
:102B6000D8E7A5F58545D9E7004DD7E780BFFFFF3A
:102B70000023036043600B46B9B9194A8260194AC1
:102B8000C260194A0261194A4261194A8261194AAE
:102B9000C261194A026202F17452A2F52302A2F63E
:102BA00092424262836600207047144A8260144A4F
:102BB000C26002F1794202F5740202F5016202611B
:102BC000104A4261104A826102F1D14202F5C012FC
:102BD00002F51E62C2610D4A02620D4A4262E1E7DD
:102BE00067E6096A85AE67BB72F36E3C3AF54FA59E
:102BF0007F520E518C68059BABD9831FD89E05C1AF
:102C000007D57C3639590EF7310BC0FFA78FF96411
:102C1000A44FFABE2DE9F04FD1B00790002306E093
:102C20009A1C50F8222008AC44F823200133072BCB
:102C3000F6D900220F2A11D811F8224001EB8200A8
:102C400043781B0443EA0463847843EA0423C0788E
:102C5000034310A840F822300132EBE74FF0000E9A
:102C600042E10F9B0C9E4FEAF62181EAB61181EA00
:102C7000766119440E9C0D9884EA0003334063404A
:102C80001944DFF8348758F82E3019440DF1400C00
:102C90005CF82E301944089D4FEA753A8AEAB50A65
:102CA0008AEAB55A099F05EA07030A9A45EA07091D
:102CB00002EA090943EA09039A440B9B01EB030961
:102CC00051444FEAF92383EAB91383EA79631C4438
:102CD00086EA000309EA030343401C440EF1010A9B
:102CE00058F82A301C445CF82A301C444FEA7133EF
:102CF00083EAB10383EAB15305EA010A45EA010B0D
:102D000007EA0B0B4AEA0B0A534422441C444FEADD
:102D1000F22383EAB21383EA7263184486EA090352
:102D20001340734018440EF1020A58F82A30184430
:102D30005CF82A3018444FEA743383EAB40383EA18
:102D4000B45301EA040A41EA040B05EA0B0B4AEA10
:102D50000B0A5344074418444FEAF72383EAB71396
:102D600083EA77631E4489EA02033B4089EA03034E
:102D70001E440EF1030A58F82A301E445CF82A302B
:102D80001E444FEA703383EAB00383EAB05304EA87
:102D9000000A44EA000B01EA0B0B4AEA0B0A53440F
:102DA00035441E444FEAF52383EAB51383EA75637D
:102DB000994482EA07032B40534099440EF1040AD8
:102DC00058F82A304B445CF82A904B444FEA763945
:102DD00089EAB60989EAB65900EA060A40EA060B0A
:102DE00004EA0B0B4AEA0B0AD14419440F914B44F5
:102DF0000B934FEAF12989EAB11989EA71694A44CA
:102E000087EA050901EA090987EA090991440EF1EF
:102E1000050A58F82A204A445CF82A904A444FEAA6
:102E2000733A8AEAB30A8AEAB35A06EA030946EA17
:102E3000030B00EA0B0B49EA0B09CA4404EB020935
:102E4000CDF8389052440A924FEAF92484EAB91432
:102E500084EA7964274485EA010409EA04046C40A1
:102E60003C440EF1060A58F82A703C445CF82A707B
:102E70003C444FEA723787EAB20787EAB25703EA5F
:102E8000020A43EA020B06EA0B0B4AEA0B0A574412
:102E900020440D903C4409944FEAF02787EAB0178C
:102EA00087EA70673D4481EA090900EA090981EA75
:102EB000090129440EF1070058F8205029445CF814
:102EC000200001444FEA743080EAB40080EAB45034
:102ED00002EA0405224313402B4303440E440C969C
:102EE0000B4408930EF1080EBEF10F0F7FF6B9AE3A
:102EF00010263F2E00F24D820F9A0C9B4FEAF327CB
:102F000087EAB31787EA73673A440E980D9D80EA03
:102F100005071F4047403A44DFF89CB45BF8267031
:102F20001744B31E1A4610AB049253F822204FEAFE
:102F3000F24484EA724484EA9224F21F53F8222075
:102F40001444A6F10F0A53F82AC04FEABC4282EAA1
:102F5000FC1282EADC021444A6F1100253F822208B
:102F6000224443F826203A4408994FEA713C8CEAFF
:102F7000B10C8CEAB15E099F3C460C400A99009165
:102F8000089941EA070C009901EA0C0C44EA0C0C80
:102F9000F4440B9C144462444FEAF42888EAB418C1
:102FA00088EA746880440C9981EA050904EA0909F1
:102FB00085EA0909C844711C5BF821008044701E31
:102FC000059053F820004FEAF04C8CEA704C8CEAE4
:102FD000902CB01F53F820008444A6F10E0E53F835
:102FE0002E904FEAB94080EAF91080EAD900604497
:102FF00053F82A904844029143F8210008EB000955
:103000004FEA723888EAB20888EAB258089901EAA9
:10301000020041EA020C019707EA0C0C40EA0C0C92
:10302000C444009800EB0908E1444FEAF82080EA24
:10303000B81080EA786005440C9981EA040008EA37
:10304000000048400544B01C01465BF820000544E0
:1030500053F826004FEAF04C8CEA704C8CEA902C26
:10306000701F53F820008444A6F10D0A53F82A007B
:103070004FEAB04053F82A7080EAF71080EAD70090
:10308000604453F82EC06044039143F82100054486
:103090004FEA793C8CEAB90C8CEAB95C02EA090087
:1030A00042EA090E089901EA0E0E40EA0E00844435
:1030B000019F07EB050E05EB0C0700974FEAFE207A
:1030C00080EABE1080EA7E600C990D1884EA08013F
:1030D0000EEA010161406818F71C5BF827100144F3
:1030E000029D53F825004FEAF04585EA704585EAD0
:1030F0009025301F53F8200005440195A6F10C0CD3
:1031000053F82C004FEAB04053F82C5080EAF510E9
:1031100080EAD500019D284453F82A502844069798
:1031200043F82700014400984FEA7035074685EAC6
:10313000B00585EAB05509EA000049EA070A02EA43
:103140000A0A40EA0A000544089800EB010A2944EB
:1031500001914FEAFA2585EABA1585EA7A652C4489
:1031600088EA0E050AEA050588EA05052544341DA6
:1031700002945BF824000544039953F821404FEA78
:10318000F44080EA744080EA9420F41E53F824400E
:103190002044A6F10B0753F827104FEAB14484EA04
:1031A000F11484EAD104044453F82C002044029919
:1031B00043F82100054401994FEA713C8CEAB10CB7
:1031C0008CEAB15C009804460C4001460198084323
:1031D00009EA0000204360442A440F9228440B90DF
:1031E0004FEAF22C8CEAB21C8CEA726CC4448EEA70
:1031F0000A08039202EA08088EEA0808C444741D0B
:1032000021465BF82440A444069D53F825504FEA1C
:10321000F54484EA754484EA9524049A53F82250CC
:103220002C44A6F10A0853F828204FEAB24585EA53
:10323000F21585EAD205254453F827402C44049121
:1032400043F8214064444FEA703787EAB00787EAC1
:10325000B057019901EA000541EA000C009901EA22
:103260000C0C45EA0C052F4409EB040CCDF838C0D2
:103270003C440A944FEAFC2787EABC1787EA7C673C
:103280007744039D8AEA050E0CEA0E0E8AEA0E0EBA
:10329000774406F106095BF829502F44029D53F844
:1032A00025504FEAF54E8EEA754E8EEA952E059A18
:1032B00053F82250AE44A6F10902029253F822506C
:1032C00029464FEAB54585EAF11585EAD1057544E9
:1032D00053F828E0754443F829502F444FEA7435D9
:1032E00085EAB40585EAB45500EA040940EA040E0B
:1032F000019A02EA0E0E49EA0E09A9440099CD1975
:103300000D954F4409974FEAF52E8EEAB51E8EEAC9
:10331000756ED644039A82EA0C0C05EA0C0C82EA1C
:103320000C02724406F107085BF8285002EB050E08
:10333000049953F821504FEAF54282EA754282EA35
:10334000952253F826100A44A6F1080553F825C023
:103350004FEABC4585EAFC1585EADC052A44029D56
:1033600053F825502A4443F8282072444FEA773313
:1033700083EAB70383EAB75304EA070527433840D3
:1033800028431844019911440C91104408900836C0
:10339000AFE50023079809E008AA52F82340991CDA
:1033A00050F82120224440F821200133072BF3D983
:1033B000002051B0BDE8F08F9873000070B506464C
:1033C0000B4B53F8204000E00834731C084A52F8B5
:1033D0002330A3420AD96568236828469847002805
:1033E000F2D0002DF0D00023AB60EDE770BD00BF40
:1033F0009874000038B505460F4C00E010340F4BB0
:103400009C4206D0A368002BF8D02368AB42F5D1CC
:1034100010E0094C00E01034084B9C4209D0A3682E
:10342000002BF8D02168284601F03BFB0028F2D1A0
:1034300000E00024204638BD48000020980000200D
:1034400008B50348034A121A002101F06FFB08BDBA
:10345000C00000201C27002008B50648064A121AA2
:10346000064901F03FFB064A0649074801F03AFBCE
:1034700008BD00BF00000020BC000020B4740000A4
:1034800000000000B47400000000002008B5084BE4
:1034900001221A700220FFF791FF0320FFF78EFF31
:1034A000FCF7A8FF034A137B23F00103137308BD45
:1034B0001B2700207826002008B5FEF701F9184BDD
:1034C00083F30888174C636943F400736361E02356
:1034D00084F822300025E57725766576A576636A3F
:1034E00043F4E0236362FEF789FCFEF749FB4FF0EB
:1034F000FF33A362E3622846FFF760FF0120FFF776
:103500005DFF2A4629462846FFF7C0FF4FF02002FC
:10351000EFF3118382F31188BFF36F8FFEE700BFD3
:103520002057002000ED00E010B5064C0020064BAF
:103530009C4206D2204603F0DEF9002801DB1C3451
:10354000F5E710BD98000020980000200A4B834248
:1035500008D04A680B6813604A685A6000230B6001
:103560004B607047203B9B688B42F2D14B7B13F042
:103570001F0FEED0F5E700BF0C27002038B504463A
:103580000E4D05F1200003F0FCF9AA68537B13F0FF
:10359000200F02D043F00803537348B15CB9537B4A
:1035A00013F01F0F07D183692BB9044BDA6104E0D4
:1035B000024BD868F2E7014BD86138BDEC260020F9
:1035C00038B50546437B13F01F0F05D183690BB156
:1035D000002302E0012300E000230BB3154B53F856
:1035E000204F9C4224D064B12146284603F09EF926
:1035F000B8B934B10F4B5B6A9C4202D02468002CEE
:10360000F1D10C4B03F120022A605A6A6A601560FE
:103610005D626B7B63F07F036B730020FFF7AEFF8F
:1036200038BD63686B602C6063681D606560F0E79F
:103630000024D8E7EC26002038B50446183003F003
:1036400023FA00234FF02002EFF3118582F3118853
:10365000BFF36F8F10E0637B43F010036373154B70
:103660009868A04214BF00200120FFF787FF85F370
:103670001188BFF36F8F012363B994F90D30002BCC
:10368000E9DA21460C48FFF761FF637B03F07F0313
:103690006373E0E7074B9B68A34200D038BD4FF04F
:1036A0002003EFF3118083F31188BFF36F8F03F0D2
:1036B0005AF9F3E7EC2600200C27002070B50546E8
:1036C000836D03B1984705F1180003F0DDF900237D
:1036D0004FF02002EFF3118682F31188BFF36F8F52
:1036E0001FE0012227E029462A48FFF72FFF6B7BC6
:1036F00003F07F036B7324E013F0020F29D02846F8
:1037000003F010F92946FFF721FF6B7B23F002033A
:103710006B730023AB601CE086F31188BFF36F8FDF
:1037200001231A46002B34D16B7B13F01F0F02D1FB
:10373000A9690029D5D012F0010FDDD013F0800F58
:10374000D1D1154B9868A84214BF00200120FFF783
:1037500015FF6B7B43F008036B7305F12803AC6A1C
:10376000A342D9D0002CD7D004F1180003F08CF973
:10377000204603F0D7F82146FFF7E8FE637B23F0ED
:10378000020363730023A36023672046FFF718FF3B
:10379000E3E770BD0C270020EC26002038B5B1F11E
:1037A000FF3F08BFB0F1FF3F1AD003F0BDF8044659
:1037B000C5176901430141EAD062181A62EB05039B
:1037C0009A0042EA907281001346081945EB030300
:1037D000DA0042EA5072C100C80B40EA424038BDEC
:1037E000034B9868FFF728FF4FF0FF30F7E700BF63
:1037F000EC260020014B9868704700BFEC260020A3
:1038000038B504464FF02003EFF3118583F3118898
:10381000BFF36F8F03F0D2F840B10022026703F0CC
:10382000B7F82946064803F08BF838BDA368E2686C
:10383000934203D001221344A360F2E70022FAE787
:1038400014270020034B1868984200D070470020CE
:10385000FCE700BF4000002030B1044A52689042AB
:1038600001D0006870470020704700BF4000002072
:1038700008B5044B1B680BB1002008BDFEF7DEF84D
:10388000FBE700BF1427002070B54FF02003EFF3D3
:10389000118583F31188BFF36F8F234B1860FFF7F7
:1038A000D1FF044620B382681F4B1B689A421FDC7D
:1038B0001E4ED6E90001801841EBE271C6E9000115
:1038C0009B1A194A13600023A360204603F0BBF83B
:1038D00085F31188BFF36F8FE368204698474FF058
:1038E0002003EFF3118583F31188BFF36F8FD6E7C1
:1038F00024B1A3680C4A12689B1AA3600B480A49BA
:103900000C68D0E90023121943EBE473C0E90023EB
:1039100000240C6003F0A9F82146FEF761F885F356
:103920001188BFF36F8F70BD14270020C0000020E6
:1039300010B5064C064B9C4206D2A2686168204630
:1039400003F0C0F81434F5E7002010BD9800002003
:103950009800002070B582B0044601A90079FCF7F8
:10396000F1FDA568019B1D4423681C892E194FF0A9
:103970002002EFF3118382F31188BFF36F8F01F000
:103980001AF8FDF74BFE2B5983F30888002383F3C5
:1039900014887368984702B070BD19B1012903D12A
:1039A00005207047022070476FF015007047FF2018
:1039B000704770B516461D4600F049FE50B900210B
:1039C000A94205D2745CFF2C06D10131C9B2F7E7D8
:1039D000012001E04FF0FF3070BD08B5006A00F033
:1039E000B3FE08BD2DE9F04182B006460C461746ED
:1039F0000020FFF7D2FF01A9C0B2FDF715FF40B1CB
:103A00004FF00108019800F021FE404602B0BDE8E9
:103A1000F0812C2303FB04631D89DB681D44042310
:103A20006A462946019800F012FE804640BB2C21D0
:103A300001FB04646489BDF8002046F608139A422D
:103A40000CD004BBBDF8002046F607139A421DD1E6
:103A50002544BDF802301D443D60D3E7BDF8021097
:103A60008C4202D04FF00308CCE704236A46294475
:103A7000019800F0ECFD0028E4D04FF00108C1E708
:103A80004FF00108BEE74FF00308BBE74FF0030813
:103A9000B8E7F0B583B007460C460020FFF77DFF7E
:103AA00001A9C0B2FDF7C0FED0B906460198FFF7E4
:103AB0007EFF0546019800F0C9FD2C2101FB047131
:103AC0000023032B05D8CA5C954207D10133DBB232
:103AD000F7E701233BB1304603B0F0BD0023F9E71F
:103AE0004FF0FF36F7E74FF0FF36F4E710B582B03E
:103AF0000346084680220192022905D005290ED1ED
:103B00001A6D03F1540402E05A6A03F1280401A972
:103B1000FDF79EFE08B9019B236002B010BD012095
:103B2000FBE738B504460221FFF7E0FF10B101259D
:103B3000284638BD05212046FFF7D8FF054608B1C5
:103B40000125F5E72046FFF748FFE065F0E7F8B507
:103B500005460F4616460024012C10DC33462C2265
:103B600002FB045221462846FDF762F8034608B9D5
:103B70000134F1E7002C03DD17B9002300E0002336
:103B80001846F8BD70B505460E460020FDF72AFB25
:103B90000446022805D0042803D0032801D020467B
:103BA00070BD324601212846FCF730FD012803D0C4
:103BB0000028F4D00524F2E70446F0E700238371DF
:103BC0008360C3600123437103600371C371704755
:103BD0004379012B01D0002070470368012B01D0ED
:103BE000002070470379012B01D00020704701208D
:103BF000704738B50546FCF769FD95F85840E31E57
:103C0000DBB2012B0DD9022C03D0042C01D0032CE4
:103C100006D1002000F0D8F810B1FF2385F8583005
:103C200038BD002000F0E3F80028ECD0FF2485F830
:103C30005840EAE770B584B004460E4603A9022056
:103C4000FDF7F2FD30B10124039800F0FFFC20469F
:103C500004B070BD039800F06AF90546E16D304686
:103C600000F0E5F82C18039800F06EFD0546039867
:103C7000FFF79DFE0146082201A800F057FF3379A7
:103C80008DF804302B4601AA2146039800F0FEFC73
:103C900004460028D8D00124D6E708B500F026FD58
:103CA00008BD2DE9F04706460F4600210846FFF7FC
:103CB00074FE044601210020FFF76FFE3B789C4212
:103CC00023D0984223D1012399462C2202FB03637F
:103CD0009C6A013CF06D00F017F9804600252C230A
:103CE00003FB09635B6A03EBC402D2F804A053F838
:103CF00034101B685246C91A3846FFF7CEFF013C04
:103D00005544A845EBD8BDE8F0870023DCE7012047
:103D1000F9E730B583B00C4615466946052000F03A
:103D200072F9E97901290DD19DF80330012B0ED0EC
:103D3000A968204600F0B7F92046FDF745FA0020B3
:103D400003B030BD0022204600F09BF9ECE720468E
:103D500000F090F9ECE770B582B006460D46FDF72D
:103D60009DF80446E86060B3022829D101A9022029
:103D7000FDF75AFD08B1012423E02A463146019897
:103D8000FCF7B2FF044618B1019800F05FFC18E0A0
:103D9000019800F0D5F8014601230DF103020198C6
:103DA000FFF707FE012806D09DF8033003F00F034C
:103DB000EB710446E8E701238DF803302046F3E772
:103DC0000724204602B070BD10B582B001A90220C0
:103DD000FDF72AFD18B10124204602B010BD01985C
:103DE00000F041F90446019800F030FCF4E710B50A
:103DF00084B003A90220FDF717FD18B10124204665
:103E000004B010BD01A9039800F09DF8044660B904
:103E10009DF80730032B03D0039800F017FCEEE762
:103E2000039800F027F90446F6E70124F4E730B4DC
:103E30004379012B10D0022201FB02F4012B0DD09B
:103E4000CD010379013B0268013A02FB04F201FB58
:103E50000321481930BC70470122EDE70025F0E747
:103E6000012800D170470220FCE72DE9F04383B020
:103E70000646884617461C4600F066FC082C20D8EB
:103E80000546082802D94FF0FF301CE03046FFF706
:103E90008EFD8146A54200D2254622463946684617
:103EA00000F020FE2A1B49460DEB040000F03EFE08
:103EB0002B466A464146304600F0E8FB18B1012027
:103EC00001E04FF0FF3003B0BDE8F08300B583B0F0
:103ED0008DF80420012301AAFFF7C7FF03B05DF8A6
:103EE00004FB04280AD0052803D1481E18BF01206E
:103EF0007047884214BF002001207047012070479E
:103F000000EB4000C001704708B5FFF7F9FF303003
:103F100008BD0B78022B07D0052B02D14FF4C070DF
:103F200070474FF0FF3070474FF4C070704710B5C6
:103F3000044600F009FCFFF7E7FFA368181A10BD5C
:103F400080682838704730B587B005460C468168D0
:103F5000102302AA1039FFF72CFD00284ADB0128A4
:103F60003CD1032323702846FFF7EAFF01460123D3
:103F70000DF107022846FFF71CFD00283DDB9DF8E8
:103F8000073003F00F0262701B092371012801D072
:103F9000042A03D90123637000232371A968012334
:103FA000A21C20392846FFF704FD002827DB012842
:103FB00019D0A078FFF754FFA070A9680123E21C74
:103FC00018392846FFF7F5FC00281ADB01280DD028
:103FD000E078FFF745FFE07000200CE002A8FDF755
:103FE000B1F82070BFE70323A370E6E70323E37073
:103FF000002000E0012007B030BD0120FBE70120D8
:10400000F9E70120F7E710B582B00C4601A9C0B26C
:10401000FDF70AFC18B10124204602B010BD21466C
:104020000198FFF790FF0446019800F00FFBF3E7BB
:1040300030B583B00C4601A9FDF790F8054610B1E4
:10404000284603B030BD019D2846FFF779FF0423C1
:104050002246A0F10801284600F0F9FA0546019829
:1040600000F0F4FAECE708B5816801222039FFF787
:104070002DFF08BD08B5816801221839FFF726FF1A
:1040800008BD10B582B0044641EA02118DF8071050
:10409000FFF756FF014601230DF107022046FFF707
:1040A000E4FE02B010BD10B582B004460191FFF7E6
:1040B00047FF04230DEB0302A0F108012046FFF7A0
:1040C000D4FE02B010BD2DE9F0439DB015469946CF
:1040D000249FDDF89480279C01A802F0F9FA0021C2
:1040E00001A8FEF745FD14B1289B002B06DC2B89A7
:1040F000EE6833446E891E44002513E01A462146BB
:1041000001A802F0EBFAF2E723463A462946484670
:1041100000F09DFA034688B92246394601A802F00C
:10412000DDFA2544B54204D2741B4445ECD944461B
:10413000EAE7269901A802F014FB002318461DB0F7
:10414000BDE8F0832DE9F04184B004460E461546E3
:10415000302303AA2946304600F06CFFA8BB336821
:10416000039A1344AB4233D104F108073A46294677
:10417000304600F072FF28BB04F11408424629467D
:10418000304600F06AFFE8B9384601F06EFA606028
:104190003368AB421FD1CDF8048000220092134651
:1041A0003946204602F00FFAC0B92046FEF774FCEB
:1041B0000546B0B9384601F058FA6060284604B0A8
:1041C000BDE8F0816FF00205F8E74FF0FF35F5E745
:1041D0006FF00105F2E76FF00305EFE76FF00405FC
:1041E000ECE76FF00505E9E7F0B5A5B006460F4628
:1041F00000230893DF2407E025462A466946304617
:1042000000F070FC2E44641B002C1DDD09A802F098
:104210005FFA002109A8FEF7ABFC2022394609A865
:1042200002F05CFA042208A909A802F057FA6946CC
:1042300009A802F096FA9DF8233001338DF8233057
:104240001F2CD9DD2025D8E725B0F0BD2DE9F0439E
:1042500083B000284AD00C461746994606460029E6
:1042600047D0002A48D00D89CB681D4404230DEBAC
:1042700003022946384600F0EAF9804600283ED17C
:10428000BDF8042046F608139A421ED06389002B1D
:104290003BD1BDF8042046F607139A4238D134606A
:1042A0007760A6F808909DF82830B37263892B4494
:1042B000F36063892B44BDF8062013447361043511
:1042C0003561404603B0BDE8F0836389BDF8061050
:1042D0008B4217D104230DEB03022944384600F02A
:1042E000B6F90028D5D04FF0FF38EAE74FF0FF3895
:1042F000E7E74FF0FF38E4E74FF0FF38E1E74FF032
:10430000FF38DEE74FF0FF38DBE74FF0FF38D8E744
:104310004FF0FF38D5E700284DD0F0B583B00F46F9
:1043200016461D4604460368002B48D043680BBB65
:104330004FF0FF313AE004230DEB0302216960687E
:1043400000F085F9014600283CD1A37A1BB122690F
:10435000E3689A4239D223894FF6FF72934217D00D
:10436000BDF80420934213D0BDF806002369184419
:10437000043020612069636998421AD223685B89FE
:10438000002BD8D0E3688342D5D104302061D2E736
:1043900015B1BDF804302B80236904333B60BDF8B0
:1043A000063033802269134404332361084603B086
:1043B000F0BD0121FAE74FF0FF31084670474FF09A
:1043C000FF31F3E74FF0FF31F0E70121EEE7B1FAFB
:1043D00081F18068B0F5004F34BF0846481CC0F139
:1043E0001F007047F8B504460D460368CE0082688A
:1043F000B2F5004F25D353F83130E168194020461B
:10440000FFF7E5FF636803EBC0035A68511C59606E
:10441000F2B9012303FA00F263691343636163682D
:1044200043F8305023683344A268B2F5004F0BD3F1
:104430009D6023681E44A368B3F5004F06D3F56062
:10444000F8BD33F83130D8E79D80F2E7F580F7E723
:10445000636853F8300023684FEAC00C03EBC001D7
:10446000A268B2F5004F1CD38F683344B2F5004FF9
:1044700019D39F6021680E44A368B3F5004F14D38D
:10448000F060226802EBC702A368B3F5004F0ED3B9
:10449000D56023686344A268B2F5004F09D39D60DC
:1044A000CEE78F88E1E79F80E4E7F080E9E7D580F9
:1044B000EFE79D80C4E72DE9F0410646CF1D27F0C8
:1044C000070701EB020828F00708A8EB07084FEAE6
:1044D000D80807603F6007F118037B60C7F80880C1
:1044E000B8F5004F1FD36FF00043FB6000247C61E0
:1044F00041463846FFF76BFF431C23F0604303330C
:104500003B613568A9682846FFF761FFA0420DDBD3
:104510006B6803EBC40300225A6033685B6843F89E
:1045200034200134EDE747F6FF73DEE73A69A8EB84
:1045300002033968B868B0F5004F07D341F832304C
:1045400039693846FFF74EFFBDE8F08121F8323077
:10455000F6E770470020704708B5FDF785FA08BDFB
:104560000EB400B582B003AA52F8041B0192FDF705
:1045700075F802B05DF804EB03B0704708B5FDF7BD
:10458000CBF8002008BD00684B6898420BD310B4EC
:104590008C682344984209D208694B69984209D231
:1045A000002010BC7047012010707047002313706A
:1045B0000120F6E76FF00B038B61002313700120DD
:1045C000EFE770B582B005460C46CE680DF10702E4
:1045D000FFF7D9FF80B92B68616822695B1A46F83A
:1045E0003230236906EBC3066B68736023690133BD
:1045F0002361012002B070BD9DF80700FAE7F8B50D
:104600000D4617461E46069C2060FDF7F5F8B8B12A
:10461000436863608368A360E760002222612B68BF
:104620006361A261C068FEF7E5FE60B122463146D3
:1046300000F070FBA3690BB923692B60A069F8BD7A
:104640006FF01500FBE76FF01200F8E77047F8B560
:1046500004460D4617461E4683688B4204D37218E3
:1046600093420ED2002300E0002363B1E068FEF71E
:10467000C1FE6168294483681C6833463A46A047F6
:10468000F8BD0123F1E76FF01500F9E72DE9F843D4
:1046900005460E4691461F4683688B4204D37A181E
:1046A00093421ED2002300E00023E3B1E868FEF746
:1046B000A1FE04468368DB6800219847804668B9FC
:1046C00069683144A3685D683B464A462046A8476E
:1046D0008046A368DB680121204698474046BDE834
:1046E000F8830123E1E76FF01508F7E72DE9F041C2
:1046F00005460E46174683688B4204D30A4493420C
:104700001DD2002300E00023DBB1E868FEF772FE53
:1047100004468368DB6800219847804660B9696871
:104720003144A3689B683A46204698478046A36870
:10473000DB680121204698474046BDE8F08101230F
:10474000E2E76FF01508F7E708B5C068FEF752FE1C
:104750008368187D08BD00F180431A683AB14FF0B4
:104760008042D2F8042311420CD0012200E0002242
:1047700010464AB182B000221A601B680193019B67
:1047800002B070470022F3E770474FF080430322E6
:10479000C3F8082370474FF080430322C3F8042373
:1047A0007047C06801EB410100EB81007047406831
:1047B00000EBC100704708B5C9B2FFF7F2FF437ABA
:1047C0001BB9037A1BB9012008BD0220FCE70020B9
:1047D000FAE770B50646CCB22146FFF7E8FF05467A
:1047E00021463046FFF7DDFF4FF02003EFF3118243
:1047F00083F31188BFF36F8F037A8BB1013BDBB278
:10480000037283B903604360E97801F180410124B8
:104810000C604372184682F31188BFF36F8F70BD2E
:104820006FF04400F7E70020F5E703688B4205D0FE
:1048300033B11B68002BF9D100207047012070476D
:10484000002070474FF02003EFF3118283F31188AB
:10485000BFF36F8F00230B60436833B11960416071
:1048600082F31188BFF36F8F704741600160F7E7F3
:1048700003464FF02001EFF3118281F31188BFF35B
:104880006F8F006868B110B4016819605C68A0425D
:1048900005D082F31188BFF36F8F10BC7047596049
:1048A000F7E782F31188BFF36F8F70472DE9F04768
:1048B000074688461546CCB22146FFF778FF814669
:1048C00021463846FFF76DFF06461DB12946FFF722
:1048D000ACFF98BB4FF02002EFF3118382F31188F5
:1048E000BFF36F8F347A0134E4B2347283F31188EA
:1048F000BFF36F8F85B1FFF748FF96F809A0BAF1B3
:10490000000F0ED0FFF747FFBAF1000F04D06B681D
:10491000AA68414638469847012C07D00020BDE8D8
:10492000F08729463046FFF78DFFEBE799F8023014
:1049300003F1804301221A600020F0E76FF00F00BE
:10494000EDE708B50022FFF7B1FF08BDF8B507464F
:104950000E46FFF726FF0546012343722846FFF760
:1049600087FF034628B15C689A6831463846A047FD
:10497000F4E7F8BD38B50546002201211046FDF7E1
:10498000E9F80020FDF7D6F84FF080430122C3F884
:104990001825FFF700FF002408E021462846FFF70E
:1049A00000FF0023036043600134E4B2012CF4D91A
:1049B000002038BD70477047401A20F07F40704794
:1049C00010B504460230FCF76FFFFCF79FFFA042D2
:1049D00006D0FCF79BFF04460230FCF765FFF4E7C6
:1049E00010BD38B50446FCF791FF05460146204648
:1049F000FFF7E2FF01280DD02046FCF755FFFCF73A
:104A000085FF05460146A01EFFF7D6FFB0F5000F53
:104A100004D238BD2846FFF7D3FFFAE72846FFF750
:104A2000CFFFF6E710B50446FCF760FFFCF786FF02
:104A30002046FFF7D6FFFCF761FF10BD08B5002147
:104A4000012000F001F808BD08B501F03AFF08BDEB
:104A500008B501460068FFF7F7FF08BD08B5FDF788
:104A600095F8FDF7D3F908BD0020704708B500237D
:104A70001370CB1E032B12D8DFE803F002060A0ED8
:104A80001146FDF73FF908BD0021FDF7DBF8FAE715
:104A90000021FDF7FBF8F6E7FDF722F9F3E7002028
:104AA000F1E703780A78934203D113B10130013161
:104AB000F7E7981A70477AB1531E0FD010B40478F4
:104AC0000A78944203D101300131013BF7D10078DB
:104AD0000B78C01A10BC70470020704700780B7824
:104AE000C01A704710B480EA010313F0030F01D01D
:104AF000034617E0034613F0030F0BD0A2B111F8E1
:104B0000014B03F8014B013AF5E751F8044B43F828
:104B1000044B043A032AF8D804E011F8014B03F8D7
:104B2000014B013A002AF8D110BC704710B4CCB246
:104B3000034613F0030F04D09AB103F8014B013A76
:104B4000F7E7C9B241EA012141EA0141032A06D946
:104B500043F8041B043AF9E703F8014B013A002A31
:104B6000FAD110BC704708B5FDF76AFC08BD0020FB
:104B700070474B6803444B600B6803440B608B68C1
:104B8000181A8860704738B5044600F0E3F9054606
:104B90006068FDF713FDA3685B1BA36062682A448D
:104BA0006260002BF4D1002038BD00B585B0002331
:104BB00001930290039101A8FFF7E5FF05B05DF8AE
:104BC00004FB70B50C46154600F0C4F9064600F02B
:104BD000BDF9A04219D9002C1ADB85421BD82B192C
:104BE00098421BD3B4FBF6F306FB1343CBB9B5FBDA
:104BF000F6F306FB1353BBB9AE4201D9002006E021
:104C000029462046FFF7D1FF01E06FF0150070BD87
:104C10006FF01500FBE76FF01500F8E76FF0150077
:104C2000F5E76FF01500F2E76FF01500EFE710B54C
:104C30000446A368032B09D923681968606800F04B
:104C400079F921460420FFF794FFF2E7FDF788F990
:104C5000002010BD00B585B001910290039201A81B
:104C6000FFF7E5FF05B05DF804FB70B50C4616468E
:104C70001D4600F06BF9844215D2002C16DB8542EC
:104C800017D82B19984217D314F0030F17D115F02A
:104C9000030F17D10DB9002007E02A463146204600
:104CA000FFF7D8FF01E06FF0150070BD6FF0150041
:104CB000FBE76FF01500F8E76FF01500F5E76FF010
:104CC0001500F2E76FF01500EFE770B50C461646D9
:104CD0001D4600F03BF9A04210D9002C11DB8542A3
:104CE00012D82B19984212D30DB9002008E02A4699
:104CF00021463046FFF7F6FE002001E06FF0150078
:104D000070BD6FF01500FBE76FF01500F8E76FF06E
:104D10001500F5E72DE9F04786B08946904683688F
:104D20001B6901AA05A9984700242646A246019BB3
:104D3000534516D9059F07EBCA077B6803930025E7
:104D40003B68AB420AD902940496414602A8C84780
:104D500038B1039B1C4401360135F1E70AF1010A21
:104D6000E5E706B0BDE8F08770B582B005460C46B1
:104D70004B79012B06D0032B11D06FF0220318467C
:104D800002B070BD00238DF80630A379032B3AD111
:104D9000E37943B1012B10D06FF02203EFE710232A
:104DA0008DF80630F1E700238DF8043023795BB1EC
:104DB000022B24D06FF02203E1E76B681B792BB341
:104DC00001238DF80430F1E700238DF805302168C8
:104DD0002846FDF7E3F80346D8B96A6810689DF8DD
:104DE00005109DF806609DF8042031430A43C0F881
:104DF0006C25EA6894E8030082E80300BFE70E230D
:104E00008DF80530E3E76FF02203B8E76FF0220377
:104E1000B5E76FF02203B2E70B46C26892E80300E1
:104E200083E803000020704743681B68D3F88004C0
:104E3000C3F88004704710B483B0C46843681B682B
:104E4000D3F810216AB1227B0A700020C3F8100148
:104E5000D3F810210192019A01221A6003B010BC0C
:104E600070474FF0FF30F9E7F0B585B08DF80710C7
:104E700043681D68C66801F0DCFDC8B906F1080486
:104E800064270123BFF35B8F54E8002F002A03D16E
:104E900044E800310029F7D1BFF35B8F0AD021200D
:104EA0000021FEF77BFC013F17F0FF07E9D11EE070
:104EB0000123B3600023C5F82031D5F820310393D6
:104EC000039B0DF10703C5F844350123C5F84835A8
:104ED000AB604FF47A74D5F8203123B9012000F08B
:104EE00008F8013CF7D10123EB600023B36005B063
:104EF000F0BD08B501F0A3FD08BD4FF0805318695F
:104F000070474FF080535869704710B5FFF7F5FFB1
:104F10000446FFF7F6FF00FB04F010BD10B5044691
:104F2000FFF7EBFFB4FBF0F300FB1340B0FA80F0A7
:104F3000400910BD38B504460D46FDF723FB294650
:104F40002046FDF72FFBFDF715FB38BD08B5FFF731
:104F5000DCFF08BD08B5FFF7D0FF08BD08B5FFF7B7
:104F6000D0FF08BD0020704770B40368CD1A002D33
:104F70004BDD1C7893F90060002E0BDB5C1C046099
:104F80001B78136013680268891A8B424FD800207F
:104F900070BC704704F07F04013C032C38D8DFE874
:104FA00004F0020A1523012D35DD5B7813600368D8
:104FB00002330360E6E7022D30DD5C789B7843EA3C
:104FC00004231360036803330360DBE7032D28DD4C
:104FD0005D789C78240244EA0544DB78234313601F
:104FE000036804330360CDE7042D1DDD5D789C78F4
:104FF000240444EA0564DD7844EA05241B7923434C
:105000001360036805330360BCE76FF05F00BFE720
:105010006FF06300BCE76FF05F00B9E76FF05F000F
:10502000B6E76FF05F00B3E76FF05F00B0E76FF0D7
:105030005F00ADE738B504680D1B002D07DD25784E
:105040009D4207D101340460FFF78EFF38BD6FF039
:105050005F00FBE76FF06100F8E730B583B004460E
:105060001546022301AAFFF7E5FF08B103B030BDE2
:10507000019A2168284600F0FEFA2368019A134439
:105080002360F3E702464FF0004300201F2804D8B6
:10509000134202D15B080130F8E7704782B00190FB
:1050A000002001AA034605E012F8011B41EA002096
:1050B0000133DBB2032BF7D902B0704708B5FFF715
:1050C000EDFF08BDA9B170B5054601F18044013C72
:1050D00000EB8404A5420BD82868FFF7EFFF0646D3
:1050E0002068FFF7EBFF45F8040B44F80469F1E78B
:1050F00070BD7047F0B400231D4685421CD217686E
:10510000FC1A146051F8046BB4422CBF4FF0000C31
:105110004FF0010C9F422CBF63460CF10103A41B0E
:1051200042F8044B0135E8E71168C81A42F8040B4D
:1051300099422CBF00230123002BF5D1F0BC70470E
:105140002DE9F00300240F2840F273810D68A5FBC0
:10515000038914EB08042CBF0125002505EB090782
:10516000166836192CBF012500253D4416604E688F
:10517000A3FB0667AD192CBF012400242744566801
:1051800075192CBF012400243C4455608E68A3FB94
:105190000678E4192CBF01260026464495682D198F
:1051A0002CBF0124002434449560CE68A3FB06780C
:1051B000E4192CBF012600264644D5682D192CBFC2
:1051C000012400243444D5600E69A3FB0678E41959
:1051D0002CBF01260026464415692D192CBF012439
:1051E0000024344415614E69A3FB0678E4192CBFF2
:1051F00001260026464455692D192CBF01240024A0
:10520000344455618E69A3FB0678E4192CBF01264E
:105210000026464495692D192CBF012400243444EE
:105220009561CE69A3FB0678E4192CBF0126002600
:105230004644D5692D192CBF012400243444D5617E
:105240000E6AA3FB0678E4192CBF0126002646440B
:10525000156A2D192CBF01240024344415624E6AAE
:10526000A3FB0678E4192CBF012600264644556AA4
:105270002D192CBF01240024344455628E6AA3FBEF
:105280000678E4192CBF012600264644956A2D199C
:105290002CBF0124002434449562CE6AA3FB067817
:1052A000E4192CBF012600264644D56A2D192CBFCF
:1052B000012400243444D5620E6BA3FB0678E41964
:1052C0002CBF012600264644156B2D192CBF012446
:1052D0000024344415634E6BA3FB0678E4192CBFFD
:1052E000012600264644556B2D192CBF01240024AD
:1052F000344455638E6BA3FB0678E4192CBF01265A
:1053000000264644956B2D192CBF012400243444FB
:105310009563CE6BA3FB0678E4192CBF012600260B
:105320004644D56B2D192CBF012400243444D56389
:1053300010384032403106E70D68A5FB038914EBB5
:1053400008042CBF0125002505EB0907166836194E
:105350002CBF012500253D4416604E68A3FB06675F
:10536000AD192CBF012400242744566875192CBFA1
:10537000012400243C4455608E68A3FB0678E419A0
:105380002CBF01260026464495682D192CBF012408
:10539000002434449560CE68A3FB0678E4192CBF42
:1053A000012600264644D5682D192CBF012400246F
:1053B0003444D5600E69A3FB0678E4192CBF01269E
:1053C0000026464415692D192CBF012400243444BD
:1053D00015614E69A3FB0678E4192CBF012600264F
:1053E000464455692D192CBF0124002434445561CD
:1053F0008E69A3FB0678E4192CBF012600264644DB
:1054000095692D192CBF0124002434449561CE697F
:10541000A3FB0678E4192CBF012600264644D56973
:105420002D192CBF012400243444D56108382032C2
:105430002031072880D890B151F8046BA6FB03787F
:10544000E4192CBF01260026464415682D192CBFEF
:1054500001240024344442F8045B0138EBE713686C
:10546000234442F8043B2146A3422CBF00240124DC
:105470008B42F4D3BDE8F00370472DE9F0411E469E
:10548000BAB1044688461746824212D9002308461C
:105490002146FAF735FE0446012908BF002801D34A
:1054A0004FF0FF3416B107FB148737602046BDE884
:1054B000F08116B14FF0FF3333604FF0FF30F6E765
:1054C00010B48B681C68A31C5B0003F00803234422
:1054D000202106E004FB03F2C2F1020202FB03F307
:1054E00049080729F6D85B42036010BC704708B52D
:1054F0008900FDF75DFA08BD0123036000234360C6
:105500008360704778B110B50446806828B161683F
:10551000FFF7EDFFA068FDF739FA012323600023B0
:105520006360A36010BD704742F2107399421ED8A9
:1055300070B504460D4643688B4201D3002070BD10
:1055400004212846FDF71AFA064698B1A16851B120
:1055500062689200FFF7C6FA6168A068FFF7C7FFAC
:10556000A068FDF713FA6560A6600020E7E76FF01A
:105570000F0070476FF00F00E1E7F8B588422CD0BC
:1055800006460D468C683CB14B68013B43B154F86C
:1055900023202AB9013BF9E7FFF7B4FF00271AE0FF
:1055A0005C1C2B6833607268A24206D221463046EA
:1055B000FFF7BAFF074648B10DE0B068121B920032
:1055C000002100EB8400FFF7B1FA0027A200A968D0
:1055D000B068FFF787FA3846F8BD0027FBE770B5DB
:1055E00004460D460121FFF79FFF064608B13046ED
:1055F00070BD626892000021A068FFF797FAA36867
:1056000085EAE572A2EBE5721A60002D02DB012348
:105610002360ECE74FF0FF33FAE74368B1EB431F39
:105620000AD283684A0953F8220001F01F0120FAC8
:1056300001F101F001007047002070470246406808
:1056400090B110B5441E2CB1936853F824300BB9B7
:10565000013CF8E7936853F82400FFF713FDC0F10D
:10566000200000EB441010BD704708B5FFF7E6FFBF
:105670000730C00808BD2DE9F84305460F46164619
:1056800012F0030318BF012303EB9204C2EB840959
:105690004368A3420AD0FFF735FF2846FFF72CFFE7
:1056A00021462846FFF740FF804680B90021284662
:1056B000FFF795FF804650B94FB1A868324639468A
:1056C0004844FFF70FFA2146A868FFF7FBFC404665
:1056D000BDE8F883F8B50646084673689F00B2EB4C
:1056E000830F0FD81346BB4213D2B46823F00301D3
:1056F000645803F00305ED00EC4014F0FF0F1AD1DD
:105700000133F0E7D21B8C180021FFF70FFA204677
:105710003A4600230BE0B46823F00301655803F018
:105720000301C900CD40D41A013C055501339A420A
:10573000F1D80020F8BD6FF00700FBE7F8B505468B
:105740000F464C0901F01F06FFF778FF38446B68DD
:10575000B0EB431F10D81F2F24D96B68A3421FD969
:10576000A9681A1B6FF040401F18024451F822200C
:1057700041F82720013BF1E710F01F0118BF01217C
:1057800001EB50112846FFF7CFFE0028E3D00BE0D5
:10579000A96803F18042013A002041F82200013B50
:1057A000002BF5D1C6B90020F8BDA86850F8241028
:1057B000C6F1200301FA06F240F82420A86850F848
:1057C00024203A4340F82420013421FA03F7696881
:1057D000A142EAD80020E7E70027F8E7F8B54368D8
:1057E000B3EB511F25D34C0901F01F07A3421ED074
:1057F0001F2936D8002F38D042684FF0000C92B3E2
:10580000866802F18043013B56F82350C7F120011E
:1058100025FA07F446F82340866856F8234044EA00
:105820000C0446F82340013A05FA01FCE7E7002F93
:10583000DED00021FFF7D3FE16E08268191952F876
:10584000211042F8231001334268121B9A42F4D807
:1058500042689A42CED98268002142F8231001336F
:10586000F6E70023F0E70020F8BD0020FCE730B4A5
:10587000436843B1846803F18042013A54F822201E
:105880000AB9013BF5E74A6842B18D6802F18044EC
:10589000013C55F824400CB9013AF5E703B9C2B10F
:1058A000934218D803D24FF0FF3015E0013B73B19B
:1058B000846803F18042013A54F822408D6855F81B
:1058C000222094420AD8F1D24FF0FF3004E00020A9
:1058D00002E0002000E0012030BC70470120FBE71F
:1058E0002DE9F04F83B0914600930C9B5A68D9F88C
:1058F000043001339A425AD382468B460C9B9868F7
:10590000002857D092000021FFF710F90C9B9C68EB
:10591000D9F80480DBF80430434528BF434601939F
:10592000002620E0DAF8083053F826702368DBF808
:1059300008100D6807FB0535009B03FB05F53B468A
:1059400022460198FFF7FCFB2B462246D9F80810A7
:105950004046FFF7F5FB44F8047B08F10103002201
:1059600044F8232001364645DCD308F101029200B9
:105970002146DAF80800FFF7B5F849465046FFF728
:1059800076FF00280ADBDAF80820D9F8081040462C
:10599000FFF7B0FB002003B0BDE8F08F0C9B9A68C6
:1059A000DAF808104046FFF7A5FB0020F3E76FF098
:1059B0000300F0E76FF00300EDE710B586B00124B7
:1059C00005940294039405AC0494009313460A468C
:1059D00002A9FFF785FF06B010BD70B40646436804
:1059E00043B1B46803F18042013A54F822200AB965
:1059F000013BF5E74A6842B18D6802F18044013C01
:105A000055F824400CB9013AF5E703B94AB393427B
:105A10000FD8934210D33068002802DD0A68002AAC
:105A200021DB0A68002A0BDD002809DA4FF0FF307D
:105A300000E0306870BC704708684042FAE7013BFC
:105A40006BB1B46803F18042013A54F822408D688A
:105A500055F822209442EDD8F1D24042EAE70020E6
:105A6000E8E70020E6E70120E4E700B585B081EA39
:105A7000E173A3EBE173009300290BDB0123019396
:105A800001230293CDF80CD001A9FFF7A6FF05B0C2
:105A90005DF804FB4FF0FF33F1E7F8B50746144615
:105AA000904214D0B94205D03846FFF766FD8446CF
:105AB000002843D101233B6066685EB1A16806F10E
:105AC0008043013B51F8233023B9013EF5E70C46F2
:105AD0000146E7E731463846FFF726FD844668BBB6
